{
  "contractName": "DeathBook",
  "abi": [
    {
      "constant": true,
      "inputs": [
        {
          "name": "_key",
          "type": "bytes32"
        }
      ],
      "name": "countValue",
      "outputs": [
        {
          "name": "",
          "type": "uint256"
        }
      ],
      "payable": false,
      "stateMutability": "view",
      "type": "function"
    },
    {
      "constant": true,
      "inputs": [
        {
          "name": "_key",
          "type": "bytes32"
        }
      ],
      "name": "getConfirmKey",
      "outputs": [
        {
          "name": "",
          "type": "bytes32"
        }
      ],
      "payable": false,
      "stateMutability": "view",
      "type": "function"
    },
    {
      "constant": true,
      "inputs": [
        {
          "name": "remoteKey",
          "type": "bytes32"
        }
      ],
      "name": "getTotalPeopleDeath",
      "outputs": [
        {
          "name": "",
          "type": "uint256"
        }
      ],
      "payable": false,
      "stateMutability": "view",
      "type": "function"
    },
    {
      "constant": false,
      "inputs": [
        {
          "name": "remoteKey",
          "type": "bytes32"
        },
        {
          "name": "confirmKey",
          "type": "bytes32"
        }
      ],
      "name": "removeConfirmKey",
      "outputs": [
        {
          "name": "",
          "type": "bool"
        }
      ],
      "payable": false,
      "stateMutability": "nonpayable",
      "type": "function"
    },
    {
      "constant": false,
      "inputs": [
        {
          "name": "remoteKey",
          "type": "bytes32"
        },
        {
          "name": "confirmKey",
          "type": "bytes32"
        }
      ],
      "name": "addConfirmKey",
      "outputs": [
        {
          "name": "",
          "type": "bool"
        }
      ],
      "payable": false,
      "stateMutability": "nonpayable",
      "type": "function"
    },
    {
      "constant": true,
      "inputs": [
        {
          "name": "_key",
          "type": "bytes32"
        },
        {
          "name": "_confirmKey",
          "type": "bytes32"
        },
        {
          "name": "_data",
          "type": "bytes32"
        }
      ],
      "name": "owner",
      "outputs": [
        {
          "name": "",
          "type": "address"
        }
      ],
      "payable": false,
      "stateMutability": "view",
      "type": "function"
    },
    {
      "constant": false,
      "inputs": [
        {
          "name": "_key",
          "type": "bytes32"
        },
        {
          "name": "_confirmKey",
          "type": "bytes32"
        },
        {
          "name": "_data",
          "type": "bytes32"
        }
      ],
      "name": "havePeopleDeath",
      "outputs": [
        {
          "components": [
            {
              "name": "peopleAddress",
              "type": "address"
            },
            {
              "name": "key",
              "type": "bytes32"
            },
            {
              "name": "confirmKey",
              "type": "bytes32"
            },
            {
              "name": "data",
              "type": "bytes32"
            }
          ],
          "name": "",
          "type": "bool"
        }
      ],
      "payable": false,
      "stateMutability": "nonpayable",
      "type": "function"
    },
    {
      "constant": false,
      "inputs": [
        {
          "name": "_newOwner",
          "type": "address"
        },
        {
          "name": "_key",
          "type": "bytes32"
        },
        {
          "name": "_confirmKey",
          "type": "bytes32"
        },
        {
          "name": "_data",
          "type": "bytes32"
        }
      ],
      "name": "changeOwner",
      "outputs": [
        {
          "name": "",
          "type": "tuple",
          "components": [
            {
              "name": "key",
              "type": "bytes32"
            },
            {
              "name": "confirmKey",
              "type": "bytes32"
            },
            {
              "name": "data",
              "type": "bytes32"
            }
          ]
        }
      ],
      "payable": false,
      "stateMutability": "nonpayable",
      "type": "function"
    },
    {
      "constant": true,
      "inputs": [
        {
          "name": "_key",
          "type": "bytes32"
        }
      ],
      "name": "findPeopleData",
      "outputs": [
        {
          "components": [
            {
              "name": "key",
              "type": "bytes32"
            },
            {
              "name": "confirmKey",
              "type": "bytes32"
            },
            {
              "name": "data",
              "type": "bytes32"
            }
          ],
          "name": "",
          "type": "bytes32"
        },
        {
          "name": "",
          "type": "bytes32"
        },
        {
          "name": "",
          "type": "bytes32"
        }
      ],
      "payable": false,
      "stateMutability": "view",
      "type": "function"
    }
  ],
  "bytecode": "0x6060604052336000806101000a81548173ffffffffffffffffffffffffffffffffffffffff021916908373ffffffffffffffffffffffffffffffffffffffff160217905550341561004f57600080fd5b6107518061005e6000396000f300606060405260043610610099576000357c0100000000000000000000000000000000000000000000000000000000900463ffffffff16806324069dda1461009e578063398be2d8146100c75780633a7e9c741461010a5780636cc6fff2146101335780637c0de053146101725780638da5cb5b146101be5780639853b53b14610213578063a6f9dae11461026c578063c4b28ec8146102a5575b600080fd5b34156100a957600080fd5b6100b1610306565b6040518082815260200191505060405180910390f35b34156100d257600080fd5b6100ec60048080356000191690602001909190505061030c565b60405180826000191660001916815260200191505060405180910390f35b341561011557600080fd5b61011d61038e565b6040518082815260200191505060405180910390f35b341561013e57600080fd5b6101586004808035600019169060200190919050506103f5565b604051808215151515815260200191505060405180910390f35b341561017d57600080fd5b6101a46004808035600019169060200190919080356000191690602001909190505061041f565b604051808215151515815260200191505060405180910390f35b34156101c957600080fd5b6101d1610475565b604051808273ffffffffffffffffffffffffffffffffffffffff1673ffffffffffffffffffffffffffffffffffffffff16815260200191505060405180910390f35b341561021e57600080fd5b610252600480803560001916906020019091908035600019169060200190919080356000191690602001909190505061049a565b604051808215151515815260200191505060405180910390f35b341561027757600080fd5b6102a3600480803573ffffffffffffffffffffffffffffffffffffffff1690602001909190505061058e565b005b34156102b057600080fd5b6102ca60048080356000191690602001909190505061062e565b60405180846000191660001916815260200183600019166000191681526020018260001916600019168152602001935050505060405180910390f35b60015481565b60008060009054906101000a900473ffffffffffffffffffffffffffffffffffffffff168073ffffffffffffffffffffffffffffffffffffffff163373ffffffffffffffffffffffffffffffffffffffff1614151561036a57600080fd5b60036000846000191660001916815260200190815260200160002054915050919050565b60008060009054906101000a900473ffffffffffffffffffffffffffffffffffffffff168073ffffffffffffffffffffffffffffffffffffffff163373ffffffffffffffffffffffffffffffffffffffff161415156103ec57600080fd5b60015491505090565b60006003600083600019166000191681526020019081526020016000206000905560019050919050565b600080602060ff1611801561043857506000602060ff16115b1561046a578160036000856000191660001916815260200190815260200160002081600019169055506001905061046f565b600090505b92915050565b6000809054906101000a900473ffffffffffffffffffffffffffffffffffffffff1681565b6000806104a56106fa565b600360008760001916600019168152602001908152602001600020549150846000191682600019161415156104d957600080fd5b6060604051908101604052808760001916815260200186600019168152602001856000191681525090508060026000886000191660001916815260200190815260200160002060008201518160000190600019169055602082015181600101906000191690556040820151816002019060001916905590505060016000815460010191905081905550600360008760001916600019168152602001908152602001600020600090556001925050509392505050565b6000809054906101000a900473ffffffffffffffffffffffffffffffffffffffff168073ffffffffffffffffffffffffffffffffffffffff163373ffffffffffffffffffffffffffffffffffffffff161415156105ea57600080fd5b816000806101000a81548173ffffffffffffffffffffffffffffffffffffffff021916908373ffffffffffffffffffffffffffffffffffffffff1602179055505050565b60008060008060009054906101000a900473ffffffffffffffffffffffffffffffffffffffff168073ffffffffffffffffffffffffffffffffffffffff163373ffffffffffffffffffffffffffffffffffffffff1614151561068f57600080fd5b600260008660001916600019168152602001908152602001600020600001546002600087600019166000191681526020019081526020016000206001015460026000886000191660001916815260200190815260200160002060020154935093509350509193909250565b60606040519081016040528060008019168152602001600080191681526020016000801916815250905600a165627a7a72305820b192e65c80255924725ef4a1e44633945ae9f6c6dd10f58075faf17c1e64ee7d0029",
  "source": "pragma solidity ^0.4.18;\n\ncontract DeathBook {\n  // These will be assigned at the construction\n     // phase, where `msg.sender` is the account\n     // creating this contract.\n     address public owner = msg.sender;\n     uint public countValue;\n\n     //Struct death\n     struct Death{\n         //address peopleAddress;\n         bytes32 key;\n         bytes32 confirmKey;\n         bytes32 data;\n     }\n\n\n     mapping(bytes32 => Death) private deathBook;\n     mapping(bytes32 => bytes32) private confirmList;\n\n     //Add confirm key onlyOwner(owner)\n     function addConfirmKey(bytes32 remoteKey, bytes32 confirmKey) public returns (bool) {\n         if (confirmKey.length > 0 && remoteKey.length > 0 ) {\n             confirmList[remoteKey] = confirmKey;\n             return true;\n         }\n        return false;\n     }\n\n     //Remove confirm key\n     function removeConfirmKey(bytes32 remoteKey) public  returns (bool) {\n         delete confirmList[remoteKey];\n         return true;\n     }\n\n\n     //Function process when have people Death\n     //Function onlyOwner smart contract must trigger\n     function havePeopleDeath(bytes32 _key, bytes32 _confirmKey, bytes32 _data) public returns (bool) {\n        bytes32 dbKey = confirmList[_key];\n        require(dbKey == _confirmKey);\n        var whoDeath = Death(_key,_confirmKey, _data);\n        deathBook[_key] = whoDeath;\n        ++countValue;\n        delete confirmList[_key];\n        return true;\n     }\n\n     //Get confirm key\n     function getConfirmKey(bytes32 _key) public onlyOwner(owner) view returns (bytes32) {\n         return confirmList[_key];\n     }\n\n     //Find total people with key\n     function findPeopleData(bytes32 _key) public  onlyOwner(owner) view returns (bytes32,bytes32,bytes32) {\n         return (deathBook[_key].key,deathBook[_key].confirmKey,deathBook[_key].data);\n     }\n\n      //Find total people death\n     function getTotalPeopleDeath() public onlyOwner(owner) view returns (uint) {\n         return countValue;\n     }\n\n\n     function changeOwner(address _newOwner) public onlyOwner(owner) {\n         owner = _newOwner;\n     }\n\n     modifier onlyOwner(address _account) {\n         require(msg.sender == _account);\n         _;\n     }\n}\n",
  "sourcePath": "/Users/camapac/workspaces/hackathon_error_404/dapp/contracts/DeathBook.sol",
  "compiler": {
    "name": "solc",
    "version": "0.4.18+commit.9cf6e910.Emscripten.clang"
  },
  "schemaVersion": "1.0.1",
  "updatedAt": "2017-12-17T00:56:43.924Z"
}