{
  "contractName": "DeathBook",
  "abi": [
    {
      "constant": true,
      "inputs": [
        {
          "name": "_key",
          "type": "bytes32"
        }
      ],
      "name": "getConfirmKey",
      "outputs": [
        {
          "name": "",
          "type": "bytes32"
        }
      ],
      "payable": false,
      "stateMutability": "view",
      "type": "function"
    },
    {
      "constant": true,
      "inputs": [
        {
          "name": "remoteKey",
          "type": "bytes32"
        },
        {
          "name": "confirmKey",
          "type": "bytes32"
        }
      ],
      "name": "getTotalPeopleDeath",
      "outputs": [
        {
          "components": [
            {
              "name": "key",
              "type": "bytes32"
            },
            {
              "name": "myListConfirm",
              "type": "bytes32[]"
            }
          ],
          "name": "",
          "type": "uint256"
        }
      ],
      "payable": false,
      "stateMutability": "view",
      "type": "function"
    },
    {
      "constant": false,
      "inputs": [
        {
          "name": "remoteKey",
          "type": "bytes32"
        }
      ],
      "name": "removeConfirmKey",
      "outputs": [
        {
          "name": "",
          "type": "bool"
        }
      ],
      "payable": false,
      "stateMutability": "nonpayable",
      "type": "function"
    },
    {
      "constant": false,
      "inputs": [
        {
          "name": "remoteKey",
          "type": "bytes32"
        },
        {
          "name": "confirmKey",
          "type": "bytes32"
        }
      ],
      "name": "addConfirmKey",
      "outputs": [
        {
          "components": [
            {
              "name": "key",
              "type": "bytes32"
            },
            {
              "name": "myListConfirm",
              "type": "bytes32[]"
            }
          ],
          "name": "",
          "type": "bool"
        }
      ],
      "payable": false,
      "stateMutability": "nonpayable",
      "type": "function"
    },
    {
      "constant": true,
      "inputs": [
        {
          "name": "_newOwner",
          "type": "address"
        }
      ],
      "name": "owner",
      "outputs": [
        {
          "name": "",
          "type": "address"
        }
      ],
      "payable": false,
      "stateMutability": "view",
      "type": "function"
    },
    {
      "constant": false,
      "inputs": [
        {
          "name": "_newOwner",
          "type": "address"
        },
        {
          "name": "confirmKey",
          "type": "bytes32"
        }
      ],
      "name": "changeOwner",
      "outputs": [
        {
          "components": [
            {
              "name": "key",
              "type": "bytes32"
            },
            {
              "name": "myListConfirm",
              "type": "bytes32[]"
            }
          ],
          "name": "",
          "type": "tuple"
        }
      ],
      "payable": false,
      "stateMutability": "nonpayable",
      "type": "function"
    },
    {
      "constant": true,
      "inputs": [
        {
          "name": "_key",
          "type": "bytes32"
        }
      ],
      "name": "findPeopleData",
      "outputs": [
        {
          "components": [
            {
              "name": "peopleAddress",
              "type": "address"
            },
            {
              "name": "key",
              "type": "bytes32"
            },
            {
              "name": "confirmKey",
              "type": "bytes32"
            },
            {
              "name": "data",
              "type": "bytes32"
            }
          ],
          "name": "",
          "type": "tuple"
        }
      ],
      "payable": false,
      "stateMutability": "view",
      "type": "function"
    },
    {
      "constant": false,
      "inputs": [
        {
          "name": "_accountDeath",
          "type": "address"
        },
        {
          "name": "_key",
          "type": "bytes32"
        },
        {
          "name": "_confirmKey",
          "type": "bytes32"
        },
        {
          "name": "_data",
          "type": "bytes32"
        }
      ],
      "name": "havePeopleDeath",
      "outputs": [
        {
          "name": "",
          "type": "bool"
        }
      ],
      "payable": false,
      "stateMutability": "nonpayable",
      "type": "function"
    }
  ],
  "bytecode": "0x6060604052336000806101000a81548173ffffffffffffffffffffffffffffffffffffffff021916908373ffffffffffffffffffffffffffffffffffffffff160217905550341561004f57600080fd5b6109008061005e6000396000f30060606040526004361061008e576000357c0100000000000000000000000000000000000000000000000000000000900463ffffffff168063398be2d8146100935780633a7e9c74146100d65780636cc6fff2146100ff5780637c0de0531461013e5780638da5cb5b1461018a578063a6f9dae1146101df578063c4b28ec814610218578063cb4ae93a14610253575b600080fd5b341561009e57600080fd5b6100b86004808035600019169060200190919050506102cb565b60405180826000191660001916815260200191505060405180910390f35b34156100e157600080fd5b6100e961034d565b6040518082815260200191505060405180910390f35b341561010a57600080fd5b6101246004808035600019169060200190919050506103b4565b604051808215151515815260200191505060405180910390f35b341561014957600080fd5b6101706004808035600019169060200190919080356000191690602001909190505061043b565b604051808215151515815260200191505060405180910390f35b341561019557600080fd5b61019d6104ef565b604051808273ffffffffffffffffffffffffffffffffffffffff1673ffffffffffffffffffffffffffffffffffffffff16815260200191505060405180910390f35b34156101ea57600080fd5b610216600480803573ffffffffffffffffffffffffffffffffffffffff16906020019091905050610514565b005b341561022357600080fd5b61023d6004808035600019169060200190919050506105b4565b6040518082815260200191505060405180910390f35b341561025e57600080fd5b6102b1600480803573ffffffffffffffffffffffffffffffffffffffff169060200190919080356000191690602001909190803560001916906020019091908035600019169060200190919050506106d3565b604051808215151515815260200191505060405180910390f35b60008060009054906101000a900473ffffffffffffffffffffffffffffffffffffffff168073ffffffffffffffffffffffffffffffffffffffff163373ffffffffffffffffffffffffffffffffffffffff1614151561032957600080fd5b60036000846000191660001916815260200190815260200160002054915050919050565b60008060009054906101000a900473ffffffffffffffffffffffffffffffffffffffff168073ffffffffffffffffffffffffffffffffffffffff163373ffffffffffffffffffffffffffffffffffffffff161415156103ab57600080fd5b60015491505090565b60008060009054906101000a900473ffffffffffffffffffffffffffffffffffffffff168073ffffffffffffffffffffffffffffffffffffffff163373ffffffffffffffffffffffffffffffffffffffff1614151561041257600080fd5b600360008460001916600019168152602001908152602001600020600090556001915050919050565b60008060009054906101000a900473ffffffffffffffffffffffffffffffffffffffff168073ffffffffffffffffffffffffffffffffffffffff163373ffffffffffffffffffffffffffffffffffffffff1614151561049957600080fd5b6000602060ff161180156104b157506000602060ff16115b156104e357826003600086600019166000191681526020019081526020016000208160001916905550600191506104e8565b600091505b5092915050565b6000809054906101000a900473ffffffffffffffffffffffffffffffffffffffff1681565b6000809054906101000a900473ffffffffffffffffffffffffffffffffffffffff168073ffffffffffffffffffffffffffffffffffffffff163373ffffffffffffffffffffffffffffffffffffffff1614151561057057600080fd5b816000806101000a81548173ffffffffffffffffffffffffffffffffffffffff021916908373ffffffffffffffffffffffffffffffffffffffff1602179055505050565b6105bc61088c565b6000809054906101000a900473ffffffffffffffffffffffffffffffffffffffff168073ffffffffffffffffffffffffffffffffffffffff163373ffffffffffffffffffffffffffffffffffffffff1614151561061857600080fd5b600260008460001916600019168152602001908152602001600020608060405190810160405290816000820160009054906101000a900473ffffffffffffffffffffffffffffffffffffffff1673ffffffffffffffffffffffffffffffffffffffff1673ffffffffffffffffffffffffffffffffffffffff1681526020016001820154600019166000191681526020016002820154600019166000191681526020016003820154600019166000191681525050915050919050565b6000806106de61088c565b6000809054906101000a900473ffffffffffffffffffffffffffffffffffffffff168073ffffffffffffffffffffffffffffffffffffffff163373ffffffffffffffffffffffffffffffffffffffff1614151561073a57600080fd5b60036000886000191660001916815260200190815260200160002054925085600019168360001916141561087c576080604051908101604052808973ffffffffffffffffffffffffffffffffffffffff1681526020018860001916815260200187600019168152602001866000191681525091508160026000896000191660001916815260200190815260200160002060008201518160000160006101000a81548173ffffffffffffffffffffffffffffffffffffffff021916908373ffffffffffffffffffffffffffffffffffffffff160217905550602082015181600101906000191690556040820151816002019060001916905560608201518160030190600019169055905050600180600082825401925050819055506003600088600019166000191681526020019081526020016000206000905560019350610881565b600093505b505050949350505050565b608060405190810160405280600073ffffffffffffffffffffffffffffffffffffffff16815260200160008019168152602001600080191681526020016000801916815250905600a165627a7a72305820f9ef594646c9951de6336728d108a5405cd75d3aa02d450d2fa40a67e82e9cf20029",
  "source": "pragma solidity ^0.4.18;\n\ncontract DeathBook {\n  // These will be assigned at the construction\n     // phase, where `msg.sender` is the account\n     // creating this contract.\n     address public owner = msg.sender;\n     uint private countValue;\n\n     //Struct death\n     struct Death{\n         address peopleAddress;\n         bytes32 key;\n         bytes32 confirmKey;\n         bytes32 data;\n     }\n\n\n     mapping(bytes32 => Death) private deathBook;\n     mapping(bytes32 => bytes32) private confirmList;\n\n     //Add confirm key\n     function addConfirmKey(bytes32 remoteKey, bytes32 confirmKey) public onlyOwner(owner) returns (bool) {\n         if (confirmKey.length > 0 && remoteKey.length > 0 ) {\n             confirmList[remoteKey] = confirmKey;\n             return true;\n         }\n        return false;\n     }\n\n     //Remove confirm key\n     function removeConfirmKey(bytes32 remoteKey) public onlyOwner(owner) returns (bool) {\n         delete confirmList[remoteKey];\n         return true;\n     }\n\n\n     //Function process when have people Death\n     //Function onlyOwner smart contract must trigger\n     function havePeopleDeath(address _accountDeath,bytes32 _key, bytes32 _confirmKey, bytes32 _data) public onlyOwner(owner) returns (bool) {\n        bytes32 dbKey = confirmList[_key];\n        if ( dbKey == _confirmKey) {\n             var whoDeath = Death(_accountDeath,_key,_confirmKey, _data);\n             deathBook[_key] = whoDeath;\n             countValue+=1;\n             delete confirmList[_key];\n             return true;\n        }\n\n        return false;\n     }\n\n     function getConfirmKey(bytes32 _key) public onlyOwner(owner) view returns (bytes32) {\n         return confirmList[_key];\n     }\n\n     function findPeopleData(bytes32 _key) public onlyOwner(owner) view returns (Death) {\n         return deathBook[_key];\n     }\n\n\n     function getTotalPeopleDeath() public onlyOwner(owner) view returns (uint) {\n         return countValue;\n     }\n\n\n     function changeOwner(address _newOwner) public onlyOwner(owner) {\n         owner = _newOwner;\n     }\n\n     modifier onlyOwner(address _account) {\n         require(msg.sender == _account);\n         _;\n     }\n}\n",
  "sourcePath": "/home/camapac/workspace/hackathon/dapp/contracts/DeathBook.sol",
  "compiler": {
    "name": "solc",
    "version": "0.4.18+commit.9cf6e910.Emscripten.clang"
  },
  "schemaVersion": "1.0.1",
  "updatedAt": "2017-12-16T08:23:19.963Z"
}